:100000000C9486030C94A3030C94A3030C94A303F5
:100010000C94A3030C94A3030C94A3030C94A303C8
:100020000C94A3030C94A3030C94A3030C94A303B8
:100030000C94A3030C94A3030C94A3030C94A303A8
:100040000C94A3030C94A3030C94A3030C94A30398
:100050000C94A3030C94A3030C94A3030C94A30388
:100060000C94A3030C94A303456E74657220416441
:100070006D696E2050617373776F72643A2000452A
:100080006E7465722041646D696E2049443A2000A7
:100090004E6F7420616E2061646D696E2E0D00508C
:1000A000617373776F72643A2000557365722044F0
:1000B000617461626173653A0D004E6F7420616E08
:1000C0002061646D696E2E0D002069732064656C7B
:1000D000657465642E0D00557365722000456E745D
:1000E0006572205573657220494420746F206265E3
:1000F0002064656C657465643A20004E6F742061FD
:100100006E2061646D696E2E0D00456E74657220FF
:100110005573657220446174613A2000456E7465C0
:100120007220557365722050617373776F72643AF1
:100130002000456E746572205573657220446174A9
:10014000613A2000456E74657220557365722050C7
:10015000617373776F72643A200055736572206122
:100160006C72656164792065786974732E204F76AE
:10017000657277726974653F20287929202F2028BD
:100180006E293A2000456E746572205573657220A1
:100190004944206265747765656E203020616E6425
:1001A0002036333A200041757468656E7469636166
:1001B00074696F6E204661696C65642E0D0041752F
:1001C0007468656E7469636174696F6E20436F6DE6
:1001D000706C6574652E0D00456E746572205573E4
:1001E00065722050617373776F72643A20005573A3
:1001F000657220646F6573206E6F74206578697313
:10020000742E0D00456E7465722055736572204919
:10021000443A200054797065202768656C70272067
:10022000666F7220616E206F7665727669657720E1
:100230006F6620616C6C2074686520636F6D6D6102
:100240006E64732E0D0027206973206E6F74207208
:1002500065636F676E697A656420617320612063EE
:100260006F6D6D616E642E0D005479706520276C82
:100270006364202D2D637572736F72206F6E27205B
:10028000746F207475726E206F6E20616E6420270B
:100290006C6364202D2D637572736F72206F6666B8
:1002A0002720746F207475726E206F6666207468E4
:1002B00065206C636420637572736F722E0D005439
:1002C00079706520276C6364202D2D626C696E6BDC
:1002D000206F6E2720746F207475726E206F6E20F1
:1002E000616E6420276C6364202D2D626C696E6BD7
:1002F000206F66662720746F207475726E206F669B
:10030000662074686520637572736F7220626C6911
:100310006E6B2E0D005479706520276C6364202D60
:100320002D68656C7027206F7220276C6364202D08
:10033000682720666F722075736167652064657435
:1003400061696C732E0D0054797065202775736593
:1003500072202D2D68656C7027206F7220277573B1
:100360006572202D682720666F722075736167653E
:100370002064657461696C732E0D00202020202D8F
:1003800063202020202D2D637572736F7220202032
:100390005B6F6E2F6F66665D20617320617267759B
:1003A0006D656E7420666F72207468652063757267
:1003B000736F722E0D00202020202D62202020201F
:1003C0002D2D626C696E6B202020205B6F6E2F6F6D
:1003D00066665D20617320617267756D656E74205D
:1003E000666F7220637572736F7220626C696E6BD8
:1003F0002E0D00202020202D6C202020202D2D6C63
:10040000696E65202020202053776974636820740A
:10041000686520637572736F7220746F20736563F3
:100420006F6E64206C696E652E0D00202020202DDB
:1004300070202020202D2D7072696E7420202020C5
:100440005072696E74207468652070726F7669648A
:10045000656420706872617365206F6E204C434440
:100460002073637265656E2E0D00202020202D7391
:10047000202020202D2D636C6561722020202043D8
:100480006C65617220746865204C4344207363720C
:1004900065656E2E0D00546865206F7074696F6E0F
:1004A00073206172653A0D004772616E747320614A
:1004B000636365737320746F204C434420686172DA
:1004C00064776172652E0D0055736167653A206C23
:1004D0006364205B2D6F7074696F6E2873295D20D3
:1004E0005B617267756D656E742873295D0D002000
:1004F0002020202D73202020202D2D73686F772041
:100500002020202053686F772074686520656E7402
:100510006972652064617461626173652066726FDF
:100520006D20454550524F4D2E20285265717569FA
:100530007265732061646D696E2070726976696C92
:1005400065676573290D00202020202D6420202060
:10055000202D2D64656C65746520202044656C65D4
:100560007465207468652070726F766964656420B4
:100570007573657220656E7472792066726F6D2076
:1005800064617461626173652E20285265717569BA
:100590007265732061646D696E2070726976696C32
:1005A00065676573290D00202020202D6120202003
:1005B000202D2D61646420202020202041646420AF
:1005C00061207573657220746F20746865206461A2
:1005D0007461626173652E20285265717569726558
:1005E000732061646D696E2070726976696C6567ED
:1005F0006573290D00202020202D6C202020202D27
:100600002D6C6F67696E2020202041757468656EBF
:100610007469636174652074686520757365722000
:100620007769746820616E20494420616E642050AF
:10063000617373776F72642E0D00546865206F705C
:1006400074696F6E73206172653A0D005065726651
:100650006F726D73206F7065726174696F6E732055
:100660006F6E207573657220646174616261736579
:100670002E0D0055736167653A2075736572205BB6
:100680002D6F7074696F6E2873295D0D0020202016
:10069000206C636420202020204772616E747320D8
:1006A00061636365737320746F204C4344206861F9
:1006B0007264776172652E0D0020202020757365AD
:1006C0007220202020506572666F726D73206F70EB
:1006D00065726174696F6E73206F6E2075736572D9
:1006E0002064617461626173652E0D005468652039
:1006F000636F6D6D616E6473206172653A0D0063A6
:100700006D64406176723A7E2420000011241FBE81
:10071000CFEFD8E0DEBFCDBF11E0A0E0B1E0E8EC64
:10072000F3E202C005900D92AA3BB107D9F721E090
:10073000AAEBB1E001C01D92A03CB207E1F70E9414
:10074000D30E0C94E2110C940000EF92FF920F93E1
:100750001F93CF93DF93CDB7DEB765970FB6F894AD
:10076000DEBF0FBECDBF04E012E053E1E52E52E044
:10077000F52EF80184910E94F30E0F5F1F4FE016D3
:10078000F106B9F70E949B0F0E942911629572959C
:10079000707F7627607F7627CE0101960E94630BDB
:1007A00089819A81AB81BC8180349105A105B10515
:1007B0000CF03BC008ED11E02DEEE22E21E0F22E10
:1007C000F80184910E94F30E0F5F1F4FE016F106AF
:1007D000B9F70E94C30F0E9429110D811E812F813C
:1007E0003885601771078207930709F43AC006EA53
:1007F00011E08DEBE82E81E0F82EF80184910E9443
:10080000F30E0F5F1F4FE016F106B9F787E065960C
:100810000FB6F894DEBF0FBECDBFDF91CF911F9111
:100820000F91FF90EF900C94F30E0EEE11E033E079
:10083000E32E32E0F32EF80184910E94F30E0F5F55
:100840001F4FE016F106B9F765960FB6F894DEBFB4
:100850000FBECDBFDF91CF911F910F91FF90EF9011
:1008600008950EEB11E097EDE92E91E0F92EF801D5
:1008700084910E94F30E0F5F1F4FE016F106B9F747
:100880008DB79EB745970FB6F8949EBF0FBE8DBF2C
:10089000ADB7BEB7119685E1FE01319601900D927C
:1008A0008A95E1F70E94340FEDB7FEB775970FB642
:1008B000F894FEBF0FBEEDBFADB7BEB7119685E190
:1008C000FE01319601900D928A95E1F70E94090D83
:1008D0000FB6F894DEBF0FBECDBFB6CF2F923F92BA
:1008E0004F925F926F927F928F929F92AF92BF9240
:1008F000CF92DF92EF92FF920F931F93CF93DF93EC
:10090000CDB7DEB7E4970FB6F894DEBF0FBECDBF0C
:100910000FE710E0EFE8EE2EE0E0FE2EF801849104
:100920000E94F30E0F5F1F4FE016F106B9F70E9409
:100930009B0F0E9429114B015C0108E610E07EE745
:10094000E72E70E0F72EF80184910E94F30E0F5FFE
:100950001F4FE016F106B9F70E94C30F0E9429113C
:10096000F2ED8F16F4E09F06A104B10441F10BEF04
:1009700010E089E0E82E81E0F82EF80184910E94D1
:10098000F30E0F5F1F4FE016F106B9F7E4960FB6AE
:10099000F894DEBF0FBECDBFDF91CF911F910F91B5
:1009A000FF90EF90DF90CF90BF90AF909F908F908F
:1009B0007F906F905F904F903F902F900895623D91
:1009C00074408105910599F605E811E065EAE62E87
:1009D00061E0F62EF80184910E94F30E0F5F1F4F25
:1009E000E016F106B9F70E949B0F0E9429114B01F6
:1009F0005C016B01C294D29450EFD522DC24C52255
:100A0000DC24B601CE0146960E94630B8E899F8935
:100A1000A88DB98D8F3F9105A105B10509F4C7C017
:100A20004AE5E42E41E0F42E04E811E0F701849158
:100A30000E94F30EFFEFEF1AFF0A0E151F05B1F724
:100A40000E949B0F8C0166E071E00E945C117C01AA
:100A500068E071E0C8010E945C113C016CE071E04B
:100A6000C8010E945C112C016EE071E0C8010E9477
:100A70005C111C0162E171E0C8010E945C11AC01D3
:100A800021E0EF2809F08DC091E0672809F082C0CD
:100A9000292B91E0452809F076C0292B91E02328E5
:100AA00009F06FC0922B19F4452B09F06FCF34E495
:100AB000E32E31E0F32E09E511E0F70184910E9465
:100AC000F30EFFEFEF1AFF0A0E151F05B1F70E9494
:100AD000C30F0E9429112B013C0102E311E0F80130
:100AE00084910E94F30E0F5F1F4FF1E003341F0744
:100AF000B1F71E012BE2220E311C710100E010E063
:100B00000E94EC0E8D3009F48DC0F70181937F01B6
:100B10000E94F30E0F5F1F4F0A30110589F789827B
:100B20009A82AB82BC824D825E826F8278868AE036
:100B3000FE01BB96DE01199601900D928A95E1F7B0
:100B40001B8ADD8ACC8A86E191E00E94250F8DB751
:100B50009EB745970FB6F8949EBF0FBE8DBFADB739
:100B6000BEB7119685E1FE01319601900D928A95EE
:100B7000E1F70E94F90A0FB6F894DEBF0FBECDBFB1
:100B800005CF90E08FCF90E0292B91E0232809F446
:100B900089CFF7CF90E0292B91E0452809F47DCF4C
:100BA000F2CF20E091E0672809F472CFF3CF2CE177
:100BB000E22E21E0F22E01E311E0F70184910E9480
:100BC000F30EFFEFEF1AFF0A0E151F05B1F70E9493
:100BD000C30F0E9429112B013C010AE011E09BE1A7
:100BE000E92E91E0F92EF80184910E94F30E0F5F37
:100BF0001F4FE016F106B9F71E01FBE22F0E311C64
:100C0000710100E010E00E94EC0E8D3059F0F70108
:100C100081937F010E94F30E0F5F1F4F0A30110571
:100C200091F77DCFF101E00FF11F108278CF8F9205
:100C30009F92AF92BF92EF92FF920F931F93CF9329
:100C4000DF93CDB7DEB765970FB6F894DEBF0FBE62
:100C5000CDBF0FE710E06FE8E62E60E0F62EF8015A
:100C600084910E94F30E0F5F1F4FE016F106B9F753
:100C70000E949B0F0E9429114B015C0108E610E0C5
:100C80005EE7E52E50E0F52EF80184910E94F30E08
:100C90000F5F1F4FE016F106B9F70E94C30F0E94C5
:100CA0002911F2ED8F16F4E09F06A104B10401F1C1
:100CB0000AEB10E088ECE82E80E0F82EF801849131
:100CC0000E94F30E0F5F1F4FE016F106B9F765960D
:100CD0000FB6F894DEBF0FBECDBFDF91CF911F914D
:100CE0000F91FF90EF90BF90AF909F908F900895DD
:100CF000623D744081059105D9F60DED10E04AEF93
:100D0000E42E40E0F42EF80184910E94F30E0F5F70
:100D10001F4FE016F106B9F70E949B0F0E942911A0
:100D20004B015C018FEF90E0A0E0B0E089839A83F3
:100D3000AB83BC838FEF9FEFDC018D839E83AF83FA
:100D4000B8878EE4898785E58A878CE48B878C87D2
:100D50001D8680911D018E8780911E018F87809155
:100D60001F01888B80912001898B809121018A8BC2
:100D70001B8AC40182959295907F9827807F98273F
:100D80009D8B8C8B8DB79EB745970FB6F8949EBF01
:100D90000FBE8DBFADB7BEB7119685E1FE0131968E
:100DA00001900D928A95E1F70E94F90A07ED10E093
:100DB0003CEDE32E30E0F32E0FB6F894DEBF0FBE0D
:100DC000CDBFF80184910E94F30E0F5F1F4FE01614
:100DD000F106B9F7C501B4010E94FA0E09EC10E062
:100DE000F80184910E94F30E0F5F1F4FF0E0063D63
:100DF0001F07B1F76CCF8F929F92AF92BF92CF92A5
:100E0000DF92EF92FF920F931F93CF93DF93CDB7B3
:100E1000DEB765970FB6F894DEBF0FBECDBF0FE704
:100E200010E04FE8E42E40E0F42EF80184910E9497
:100E3000F30E0F5F1F4FE016F106B9F70E949B0FEC
:100E40000E9429114B015C0108E610E03EE7E32E09
:100E500030E0F32EF80184910E94F30E0F5F1F4FD4
:100E6000E016F106B9F70E94C30F0E942911F2EDB6
:100E70008F16F4E09F06A104B10411F100E910E01F
:100E80008EE9E82E80E0F82EF80184910E94F30E9E
:100E90000F5F1F4FE016F106B9F765960FB6F8948D
:100EA000DEBF0FBECDBFDF91CF911F910F91FF909D
:100EB000EF90DF90CF90BF90AF909F908F9008956C
:100EC000623D744081059105C9F60AEA10E029EBFC
:100ED000E22E20E0F22EF80184910E94F30E0F5FC3
:100EE0001F4FE016F106B9F7C12CD12C99EAE92E73
:100EF00090E0F92EB601CE0101960E94630B898124
:100F00009A81AB81BC818F3F9105A105B10591F11B
:100F100086E191E00E94250F8DB79EB745970FB6E9
:100F2000F8949EBF0FBE8DBFADB7BEB7119685E1D9
:100F3000FE01319601900D928A95E1F70E94340FDF
:100F40000FE910E00FB6F894DEBF0FBECDBFF80179
:100F500084910E94F30E0F5F1F4FE016F106B9F760
:100F60006D817E818F8198850E94FA0E86E191E0E5
:100F70000E94250FF0E1CF0ED11CC11424E0D2064F
:100F800009F0B8CF8ACFCF92DF92EF92FF920F9302
:100F90001F93CF93DF93CFEFD6E00AE017E0FE0177
:100FA00084910E94F30E21960C171D07C1F70E9431
:100FB0009B0F7C0161EB71E00E945011EC016DE12F
:100FC00071E00E945C119C019881911109C0DF9130
:100FD000CF911F910F91FF90EF90DF90CF900895E8
:100FE000232BA9F369E271E0CE010E945C11892BE9
:100FF00009F4D0C062E271E0CE010E945C11892B3D
:1010000009F407C16BE571E0CE010E945C11892BE8
:1010100009F09AC061EB71E080E090E00E9450110D
:10102000EC0167E271E00E945C118C016EE271E0FC
:10103000CE010E945C11012B09F0D0C008EC14E035
:101040008EEEC82E84E0D82EF80184910E94F30E13
:101050000F5F1F4FC016D106B9F708EA14E0B7ECCE
:10106000CB2EB4E0DB2EF80184910E94F30E0F5FCB
:101070001F4FC016D106B9F706E914E0A7EACA2E39
:10108000A4E0DA2EF80184910E94F30E0F5F1F4F47
:10109000C016D106B9F70AE614E0F5E9CF2EF4E060
:1010A000DF2EF80184910E94F30E0F5F1F4FC016D0
:1010B000D106B9F70BE214E0E9E6CE2EE4E0DE2E2D
:1010C000F80184910E94F30E0F5F1F4FC016D106E6
:1010D000B9F703EF13E07AE2C72E74E0D72EF801D8
:1010E00084910E94F30E0F5F1F4FC016D106B9F70F
:1010F00006EB13E062EFC62E63E0D62EF801849172
:101100000E94F30E0F5F1F4FC016D106B9F70BE711
:1011100013E055EBC52E53E0D52EF80184910E94C3
:10112000F30E0F5F1F4FC016D106B9F7CE010E9414
:10113000A010C701DF91CF911F910F91FF90EF9009
:10114000DF90CF900C94A01085EA91E00E94250FCB
:10115000CE010E94250F06E412E098E6C92E92E027
:10116000D92EF80184910E94F30E0F5F1F4FC01615
:10117000D106B9F704E112E085E4C82E82E0D82E4A
:10118000F80184910E94F30E0F5F1F4FC016D10625
:10119000B9F7CCCFCCEED6E00EEF16E0FE0184918D
:1011A0000E94F30E21960C171D07C1F7C9EBD6E07C
:1011B0000BEE16E0FE0184910E94F30E21960C17AF
:1011C0001D07C1F7CDE8D6E0FE0184910E94F30E21
:1011D0002196F6E0C83BDF07B9F7F9CE892B09F471
:1011E0002DCF6FE571E0CE010E945C118C0168E5A6
:1011F00071E0CE010E945C11012B09F09CC081E0DE
:101200000E94880C80E792E00197F1F700C000008F
:101210008DCF61EB71E080E090E00E945011EC0115
:1012200067E271E00E945C118C016EE271E0CE0118
:101230000E945C11012B09F06AC003E716E0ECE89C
:10124000CE2EE6E0DE2EF80184910E94F30E0F5FB1
:101250001F4FC016D106B9F70CE416E072E7C72E8F
:1012600076E0D72EF80184910E94F30E0F5F1F4F96
:10127000C016D106B9F70AE316E06BE4C62E66E0A5
:10128000D62EF80184910E94F30E0F5F1F4FC016F7
:10129000D106B9F705EF15E059E3C52E56E0D52E76
:1012A000F80184910E94F30E0F5F1F4FC016D10604
:1012B000B9F707EA15E044EFC42E45E0D42EF80153
:1012C00084910E94F30E0F5F1F4FC016D106B9F72D
:1012D00007E415E036EAC32E35E0D32EF8018491F9
:1012E0000E94F30E0F5F1F4FC016D106B9F70FEE25
:1012F00014E026E4C22E25E0D22EF80184910E944B
:10130000F30E0F5F1F4FC016D106B9F70FCF892B11
:1013100009F493CF61E371E0CE010E945C118C016E
:1013200069E371E0CE010E945C11012B09F069C0F4
:101330000E94A503FBCE892B09F461CF67E671E01B
:10134000CE010E945C118C016FE671E0CE010E941B
:101350005C11012B51F461EB71E080E090E00E94A0
:101360005011EC010E94B00CE1CE892BA1F362E791
:1013700071E0CE010E945C118C0169E371E0CE0145
:101380000E945C11012B21F480EC0E94880CCECECF
:10139000892BD1F369E771E0CE010E945C118C01C9
:1013A00061E871E0CE010E945C11012B09F050C090
:1013B00061EB71E080E090E00E945011EC0164E884
:1013C00071E00E945C116C0167E871E0CE010E943F
:1013D0005C118C016AE871E0CE010E945C11AC01E5
:1013E00021E0CD2809F020E091E0012B09F090E008
:1013F000922B19F4452B09F0BCC08FE00E94880C99
:1014000095CE892B09F494CF6CE371E0CE010E9454
:101410005C118C0162E471E0CE010E945C11012B31
:1014200019F40E946E0482CE892BD9F365E471E031
:10143000CE010E945C118C016EE471E0CE010E942D
:101440005C11012B11F0892BE9F50E9417066ECE75
:10145000892B09F4ADCF69E971E0CE010E945C11DE
:101460008C0162EA71E0CE010E945C11012B09F04F
:101470004BC061EB71E080E090E00E945011EC0104
:1014800064E871E00E945C116C0167E871E0CE01D4
:101490000E945C118C016AE871E0CE010E945C112F
:1014A000AC0121E0CD2809F020E091E0012B09F00A
:1014B00090E0922B19F4452B09F039C08EE00E9480
:1014C000880C34CE61E571E0CE010E945C118C0184
:1014D00068E571E0CE010E945C11012B19F40E94B5
:1014E000FB0624CE892BD9F307E413E09AE7C92E33
:1014F00093E0D92EF80184910E94F30E0F5F1F4FE5
:10150000C016D106B9F712CE892B09F4B2CF05E186
:1015100013E026E4C22E23E0D22EF80184910E942B
:10152000F30E0F5F1F4FC016D106B9F7FFCD6DE860
:1015300071E0CE010E945C116C0161E971E0CE01A5
:101540000E945C118C0165E971E0CE010E945C1182
:10155000AC0121E0CD2809F020E091E0012B09F059
:1015600090E0922B11F4452BA1F58CE00E94880CA1
:10157000DDCD6DE871E0CE010E945C116C0161E986
:1015800071E0CE010E945C118C0165E971E0CE0131
:101590000E945C11AC0121E0CD2809F020E091E02F
:1015A000012B09F090E0922B09F088CF452B09F42C
:1015B00085CF0FEB12E044E1C42E43E0D42EF801B6
:1015C00084910E94F30E0F5F1F4FC016D106B9F72A
:1015D000ADCD09E612E03EEBC32E32E0D32EF8018A
:1015E00084910E94F30E0F5F1F4FC016D106B9F70A
:1015F0009DCD0F931F93CF93DF93CDB7DEB78A8D29
:101600009B8D2F81F999FECF92BD81BD20BDFA9AA5
:10161000F99A4B855C856D857E859C012F5F3F4FD8
:10162000F999FECF32BD21BD40BDFA9AF99A052F36
:10163000162F272F332727FD3A95FC013296F9996B
:10164000FECFF2BDE1BD00BDFA9AF99A8B013327B6
:1016500017FD3095232FFC013396F999FECFF2BD8B
:10166000E1BD00BDFA9AF99A472F772747FD70959B
:10167000572F672F9C012C5F3F4FF999FECF32BD4A
:1016800021BD40BDFA9AF99AFE013F96BE01675E00
:101690007F4F049727E030E02C0F3D1F821B930BF8
:1016A0002191AC014E0F5F1FF999FECF52BD41BD94
:1016B00020BDFA9AF99AE617F70791F7DF91CF91D3
:1016C0001F910F9108954F925F926F927F928F9228
:1016D0009F92AF92BF92CF92DF92EF92FF920F93C1
:1016E0001F93DC01F999FECF72BD61BDF89A40B439
:1016F000512C612C712CCB010196F999FECF92BD32
:1017000081BDF89A00B5802E912CA12CB12CCB0173
:101710000296F999FECF92BD81BDF89A80B5082F47
:1017200010E020E030E0CB010396F999FECF92BDA6
:1017300081BDF89AC0B4D12CE12CF12CCB010496D8
:10174000F999FECF92BD81BDF89A80B552961C9250
:1017500052974D925D926D927C921397322F212F6A
:10176000102F0027080D191D2A1D3B1D7601DD24B1
:10177000CC24C00ED11EE21EF31E082F10E020E084
:1017800030E0302F2227112700270C0D1D1D2E1DA4
:101790003F1D14960D931D932D933C931797FD01B8
:1017A0003896AD014E5E5F4F6A1B7B0B635071092B
:1017B0009B012E0F3F1FF999FECF32BD21BDF89A34
:1017C00090B59193E417F50799F7CD011F910F910B
:1017D000FF90EF90DF90CF90BF90AF909F908F9051
:1017E0007F906F905F904F90089580EF8AB987E067
:1017F00084B988E28BB915B886E08A95F1F700C004
:1018000081E085B996E09A95F1F700C015B8E6E059
:10181000EA95F1F700C0E9EFF0E03197F1F700C089
:10182000000090E29BB915B8F6E0FA95F1F700C018
:1018300085B996E09A95F1F700C015B8E6E0EA950B
:10184000F1F700C090E89BB915B8F6E0FA95F1F70A
:1018500000C085B996E09A95F1F700C015B8E6E0AA
:10186000EA95F1F700C0E9EFF0E03197F1F700C039
:1018700000001BB815B8F6E0FA95F1F700C085B97D
:1018800096E09A95F1F700C015B8E6E0EA95F1F711
:1018900000C090EC9BB915B8F6E0FA95F1F700C0DE
:1018A00085B996E09A95F1F700C015B8E6E0EA959B
:1018B000F1F700C0E9EFF0E03197F1F700C0000068
:1018C0001BB815B8F6E0FA95F1F700C085B996E0B7
:1018D0009A95F1F700C015B8E6E0EA95F1F700C077
:1018E00090E69BB915B8F6E0FA95F1F700C085B916
:1018F00086E08A95F1F700C015B896E09A95F1F761
:1019000000C0E9EFF0E03197F1F700C00000089562
:10191000982F907F9BB915B836E03A95F1F700C043
:1019200021E025B996E09A95F1F700C015B836E0A8
:101930003A95F1F700C030E1839FC00111248BB9C3
:1019400015B886E08A95F1F700C025B996E09A951A
:10195000F1F700C015B836E03A95F1F700C00895E8
:10196000FC014081442309F453C0319692E023E006
:1019700070EF64E085E01BB81AB895B936E03A9587
:10198000F1F700C025B956E05A95F1F700C095B9B6
:1019900036E03A95F1F700C039B195B956E05A955D
:1019A000F1F700C025B956E05A95F1F700C095B996
:1019B00056E05A95F1F700C037FFDDCF7AB9342FE2
:1019C000307F3BB965B936E03A95F1F700C085B98B
:1019D00056E05A95F1F700C065B936E03A95F1F74F
:1019E00000C030E1439FA00111244BB965B956E016
:1019F0005A95F1F700C085B936E03A95F1F700C085
:101A000065B956E05A95F1F700C041914111B3CF45
:101A10000895CF92DF92EF92FF920F931F93CF938F
:101A2000DF93CDB7DEB71BB815B826E02A95F1F7DE
:101A300000C081E085B936E03A95F1F700C015B8ED
:101A400056E05A95F1F700C090E19BB915B876E0E1
:101A50007A95F1F700C085B986E08A95F1F700C064
:101A600015B896E09A95F1F700C0E0E7F2E03197FB
:101A7000F1F700C00000E8EAF1E039E482E093E029
:101A800060EF44E055E01BB81AB885B926E02A9506
:101A9000F1F700C095B976E07A95F1F700C085B905
:101AA00026E02A95F1F700C029B185B976E07A954C
:101AB000F1F700C095B976E07A95F1F700C085B9E5
:101AC00076E07A95F1F700C027FFDDCF6AB9232FC2
:101AD000207F2BB945B926E02A95F1F700C055B90A
:101AE00076E07A95F1F700C045B926E02A95F1F73E
:101AF00000C070E1379F900111242BB945B926E051
:101B00002A95F1F700C055B936E03A95F1F700C0D3
:101B100045B976E07A95F1F700C031913111B3CF34
:101B2000CB84DC84ED84FE848AE090E00E9408107F
:101B30008C012AE0AC01C701B6010E948C11FC01A6
:101B40004081442309F454C0FC01319692E023E023
:101B500070EF64E085E01BB81AB895B936E03A95A5
:101B6000F1F700C025B956E05A95F1F700C095B9D4
:101B700036E03A95F1F700C039B195B956E05A957B
:101B8000F1F700C025B956E05A95F1F700C095B9B4
:101B900056E05A95F1F700C037FFDDCF7AB9342F00
:101BA000307F3BB965B936E03A95F1F700C085B9A9
:101BB00056E05A95F1F700C065B936E03A95F1F76D
:101BC00000C030E1439FA00111244BB965B956E034
:101BD0005A95F1F700C085B936E03A95F1F700C0A3
:101BE00065B956E05A95F1F700C041914111B3CF64
:101BF000C8010E94A01080EC8BB915B8F6E0FA95E8
:101C0000F1F700C081E085B926E02A95F1F700C020
:101C100015B836E03A95F1F700C01BB815B856E094
:101C20005A95F1F700C085B976E07A95F1F700C0D2
:101C300015B886E08A95F1F700C0EDEAF1E034E4EA
:101C400082E093E060EF44E055E01BB81AB885B934
:101C500076E07A95F1F700C095B926E02A95F1F77C
:101C600000C085B976E07A95F1F700C029B185B951
:101C700076E07A95F1F700C095B976E07A95F1F7BC
:101C800000C085B976E07A95F1F700C027FFDDCF77
:101C90006AB9232F207F2BB945B926E02A95F1F7A1
:101CA00000C055B976E07A95F1F700C045B926E055
:101CB0002A95F1F700C070E1379F900111242BB9EC
:101CC00045B926E02A95F1F700C055B936E03A95B6
:101CD000F1F700C045B976E07A95F1F700C031918F
:101CE0003111B3CF3B89332309F454C0FE017496FC
:101CF00082E093E060EF44E055E01BB81AB885B984
:101D000026E02A95F1F700C095B976E07A95F1F7CB
:101D100000C085B926E02A95F1F700C029B185B940
:101D200076E07A95F1F700C095B976E07A95F1F70B
:101D300000C085B976E07A95F1F700C027FFDDCFC6
:101D40006AB9232F207F2BB945B926E02A95F1F7F0
:101D500000C055B976E07A95F1F700C045B926E0A4
:101D60002A95F1F700C070E1379F900111242BB93B
:101D700045B926E02A95F1F700C055B936E03A9505
:101D8000F1F700C045B976E07A95F1F700C03191DE
:101D90003111B3CFDF91CF911F910F91FF90EF9051
:101DA000DF90CF9008950E94F50B8CE090E00E94A8
:101DB000DC0E0E94C307FDCF9093C5008093C40042
:101DC000E0ECF0E080818260808388E18093C10054
:101DD00086E08093C20008958091C00087FFFCCF09
:101DE0008091C60008959091C00095FFFCCF80932C
:101DF000C6000895CF92DF92EF92FF92CF93DF93C8
:101E00006B017C018AE090E00E940810EC012AE05E
:101E1000AC01C701B6010E948C11FC012081222374
:101E200059F0FC0131969091C00095FFFCCF2093B2
:101E3000C60021912111F7CFCE01DF91CF91FF9004
:101E4000EF90DF90CF900C94A010FC012081222312
:101E500051F031969091C00095FFFCCF2093C600C1
:101E600021912111F7CF0895CF92DF92EF92FF9247
:101E70000F931F93CF93DF93CDB7DEB7E8EAF1E07E
:101E800099E48091C00085FFFCCF9093C6009191AA
:101E90009111F7CFCB84DC84ED84FE848AE090E05E
:101EA0000E9408108C012AE0AC01C701B6010E9413
:101EB0008C11FC012081222351F031969091C000B9
:101EC00095FFFCCF2093C60021912111F7CFC801C7
:101ED0000E94A0108091C00085FFFCCF8DE0809310
:101EE000C600E4EBF1E094E48091C00085FFFCCFF4
:101EF0009093C60091919111F7CF9B89992359F046
:101F0000FE0174968091C00085FFFCCF9093C600BF
:101F100091919111F7CF8091C00085FFFCCF8DE0AA
:101F20008093C600DF91CF911F910F91FF90EF90AA
:101F3000DF90CF90089561E070E084E190E00E942E
:101F4000EC0FBC01FC01AC014C5E5F4F9091C000F6
:101F500097FFFCCF2091C6002D3061F09091C0001A
:101F600095FFFCCF2093C6002193E417F50771F786
:101F7000CB0108959091C00095FFFCCF8DE0809338
:101F8000C600CB01089561E070E084E190E00E941A
:101F9000EC0FBC01FC01AC014C5E5F4F3AE290914A
:101FA000C00097FFFCCF2091C6002D3061F09091CA
:101FB000C00095FFFCCF3093C6002193E417F507CE
:101FC00071F7CB0108959091C00095FFFCCF8DE093
:101FD0008093C600CB0108950F931F93CF93DF9397
:101FE000869F8001879F100D969F100D1124C801B8
:101FF0000E940810EC01009729F0A80160E070E051
:102000000E945511CE01DF91CF911F910F9108953C
:102010000F931F93CF93DF938230910510F482E0EA
:1020200090E0E091BE01F091BF0120E030E0A0E03F
:10203000B0E0309719F14081518102811381481736
:102040005907C8F08417950769F4109731F0129674
:102050000C93129713961C9327C00093BE01109304
:10206000BF0122C02115310519F04217530718F49A
:102070009A01BD01EF01DF01F801DBCF2115310528
:10208000F9F0281B390B2430310580F48A819B81BB
:102090006115710521F0FB019383828304C0909345
:1020A000BF018093BE01FE01329644C0FE01E20FE3
:1020B000F31F8193919322503109398328833AC0C9
:1020C0002091BC013091BD01232B41F420910201EC
:1020D000309103013093BD012093BC012091000198
:1020E000309101012115310541F42DB73EB74091E2
:1020F000040150910501241B350BE091BC01F091C6
:10210000BD01E217F307A0F42E1B3F0B2817390778
:1021100078F0AC014E5F5F4F2417350748F04E0F43
:102120005F1F5093BD014093BC018193919302C006
:10213000E0E0F0E0CF01DF91CF911F910F91089582
:10214000CF93DF93009709F481C0FC01329713828B
:102150001282A091BE01B091BF01109781F420813D
:102160003181820F931F2091BC013091BD0128174E
:10217000390751F5F093BD01E093BC0167C0ED0153
:1021800020E030E0CE17DF0740F44A815B819E01FA
:1021900041155105F1F0EA01F5CFD383C2834081A7
:1021A0005181840F951FC817D90759F488819981E7
:1021B000840F951F0296918380838A819B819383EC
:1021C00082832115310529F4F093BF01E093BE010C
:1021D0003DC0E901FB83EA8349915991C40FD51FA2
:1021E000EC17FD0761F480819181840F951F0296A1
:1021F000E90199838883828193819B838A83E0E0CC
:10220000F0E012968D919C911397009719F0FD01C3
:10221000DC01F7CF8D919C9111979D012E5F3F4F6F
:10222000820F931F2091BC013091BD0128173907FF
:1022300069F4309729F41092BF011092BE0102C0D8
:1022400013821282B093BD01A093BC01DF91CF91A4
:1022500008951F93FC0199278827BC01E8941191E8
:102260001032E9F3193010F01E30C8F31B3251F070
:102270001D3249F4689406C00E949B11610F711DC4
:10228000811D911D119110531A30B0F33EF49095B9
:102290008095709561957F4F8F4F9F4F1F91089547
:1022A0004AEB51E00E9465110895DC0101C06D9375
:1022B00041505040E0F70895FB01DC018D91019001
:1022C00080190110D9F3990B0895FA01A191B081F9
:1022D000009719F41097E1F0CD01DC01CD010D90CC
:1022E000002011F4C00113C0FB012191222319F039
:1022F0002015D9F7F3CFFB012191201519F41E9277
:10230000119606C02223C1F70D900020A1F7D0013D
:10231000FA01A193B0830895BB272A3051F4992381
:1023200042F4BDE290958095709561957F4F8F4FF7
:102330009F4F0C94B111592F482F372F262F660F1E
:10234000771F881F991F660F771F881F991F620FBD
:10235000731F841F951F660F771F881F991F08958D
:10236000BB27FA01A62F6217710581059105330B72
:1023700030FB66F0AA27660F771F881F991FAA1FD8
:10238000A21710F0A21B63953850A9F7A05DAA33DD
:1023900008F0A95DA19336F7B111B1931082CA017B
:1023A0000C94D211DC01FC01672F71917723E1F7C6
:1023B000329704C07C916D9370836291AE17BF0712
:0823C000C8F30895F894FFCF63
:1023C8000000C00120005900596573007900796543
:1023D8007300594553000D004E554C4C0065786903
:1023E800740075736572002D2D68656C70002D681A
:1023F800002D2D6C6F67696E002D6C002D2D6164AA
:1024080064002D61002D2D64656C657465002D6474
:10241800002D2D73686F77002D73006C6364002D99
:102428002D636C656172002D2D7072696E74002DBC
:1024380070002D2D6C696E65002D2D626C696E6BB8
:10244800002D62006F6E004F6E004F4E006F666683
:10245800004F6666004F4646002D2D637572736FF8
:1024680072002D6300270049443A2000444154413A
:0A2478003A2000446174613A20002C
:00000001FF
