:100000000C9434000C9451000C9451000C94510049
:100010000C9451000C9451000C9451000C9451001C
:100020000C9451000C9451000C9451000C9451000C
:100030000C9451000C9451000C9451000C945100FC
:100040000C9451000C9451000C9451000C945100EC
:100050000C9451000C9451000C9451000C945100DC
:100060000C9451000C94510011241FBECFEFD8E026
:10007000DEBFCDBF11E0A0E0B1E0EAE2F9E002C0EE
:1000800005900D92A638B107D9F721E0A6E8B1E0B6
:1000900001C01D92AA38B207E1F70E9490010C94AA
:1000A00093040C940000F999FECF92BD81BDF89A9B
:1000B00080B50895CF92DF92EF92FF920F931F9336
:1000C000CF93DF938C01EB01CB010E945300D82E1C
:1000D000CE0101960E945300E82ECE0102960E94A6
:1000E0005300F82ECE0103960E945300C82ECE0175
:1000F00004960E945300F801128A4D2D50E060E0F2
:1001000070E040835183628373834F2D50E060E041
:1001100070E0762F652F542F44274E0D511D611D21
:10012000711DD12CE12CF12C7601DD24CC244C0D59
:100130005D1D6E1D7F1D90E0A0E0B0E0B82FAA27E6
:1001400099278827840F951FA61FB71F848395833F
:10015000A683B7837E01F5E0EF0EF11C680188E00D
:10016000C80ED11C2F96C7010E945300F60181933F
:100170006F01FFEFEF1AFF0AEC16FD06A1F7C801A9
:10018000DF91CF911F910F91FF90EF90DF90CF9073
:10019000089515B883E08A95F1F7000081E085B9EC
:1001A00083E08A95F1F7000015B883E08A95F1F7AE
:1001B00000000895CF93C82F807F8BB90E94C9009B
:1001C00020E1C29FC00111248BB9CF910C94C900CA
:1001D00080EF8AB987E084B988E28BB90E94C900B0
:1001E00088E20E94DA008CE00E94DA0086E00C943B
:1001F000DA0084E085B993E09A95F1F7000095E084
:1002000095B993E09A95F1F7000085B983E08A9556
:10021000F1F700000895CF93C82F82E093E01BB858
:100220001AB885B923E02A95F1F7000095B933E0B3
:100230003A95F1F7000085B923E02A95F1F700001F
:1002400029B185B933E03A95F1F7000095B933E06B
:100250003A95F1F7000085B933E03A95F1F70000DF
:1002600027FFDDCF80EF8AB98C2F807F8BB90E946A
:10027000F90020E1C29FC00111248BB9CF910C94E9
:10028000F900CF93DF93EC018991882319F00E9444
:100290000B01FACFDF91CF910895CF92DF92EF92C9
:1002A000FF92CF93DF936B017C018AE090E00E9484
:1002B000EE02EC012AE0AC01C701B6010E943D0448
:1002C0000E944101CE01DF91CF91FF90EF90DF902E
:1002D000CF900C948603CF93DF93CDB7DEB781E048
:1002E0000E94DA0080E792E00197F1F700C0000079
:1002F00088E191E00E9441016D817E818F81988526
:100300000E944D0180EC0E94DA0086E091E00E949C
:100310004101CE010D960E944101DF91CF910895D8
:10032000CF93DF93CDB7DEB765970FB6F894DEBFF6
:100330000FBECDBF0E94E8008CE090E00E94080252
:100340008DE091E00E94CE020E940F046B017C01BF
:100350008DE191E00E9426020E949F020E940F04FC
:100360004B015C01B60184E0660F771F8A95E1F7C7
:10037000CE0101960E945A008D819E81AF81B88581
:1003800088169906AA06BB0689F08DE491E00E94C2
:10039000260287E00E941F0283E391E00E9426026A
:1003A0000E9471028CE00E941F02CACF85E691E094
:1003B0000E9426028DB79EB745970FB6F8949EBF50
:1003C0000FBE8DBFADB7BEB7119685E1FE01319668
:1003D00001900D928A95E1F70E9450028DB79EB769
:1003E00045970FB6F8949EBF0FBE8DBFADB7BEB791
:1003F000119685E1FE01319601900D928A95E1F703
:100400000E946B010FB6F894DEBF0FBECDBFC4CF04
:100410009093C5008093C400E0ECF0E0808182609E
:10042000808388E18093C10086E08093C2000895B4
:100430008091C00087FFFCCF8091C6000895909105
:10044000C00095FFFCCF8093C6000895CF93DF9343
:10045000EC018991882319F00E941F02FACFDF91E5
:10046000CF910895CF92DF92EF92FF92CF93DF93D7
:100470006B017C018AE090E00E94EE02EC012AE030
:10048000AC01C701B6010E943D040E942602CE01C4
:10049000DF91CF91FF90EF90DF90CF900C94860387
:1004A000CF93DF93CDB7DEB788E191E00E942602BB
:1004B0006D817E818F8198850E94320283E691E072
:1004C0000E9426028FE791E00E942602CE010D963F
:1004D0000E94260283E691E00E942602DF91CF91DE
:1004E0000895CF92DF92FF920F931F93CF93DF93E4
:1004F00061E070E084E190E00E94D202EC018C01A6
:100500006C0184E1C80ED11C0E941802F82EEDE0A7
:100510008E1304C08DE00E941F0208C00E941F02BB
:10052000F801F1928F01EC15FD0571F7CE01DF9115
:10053000CF911F910F91FF90DF90CF900895CF92B0
:10054000DF92FF920F931F93CF93DF9361E070E0F0
:1005500084E190E00E94D202EC018C016C0184E104
:10056000C80ED11C0E941802F82EEDE08E1304C0B4
:100570008DE00E941F0209C08AE20E941F02F8015A
:10058000F1928F01EC15FD0569F7CE01DF91CF9156
:100590001F910F91FF90DF90CF9008950E94260247
:1005A0000C9471020F931F93CF93DF93869F80016A
:1005B000879F100D969F100D1124C8010E94EE0216
:1005C000EC01009729F0A80160E070E00E94360479
:1005D000CE01DF91CF911F910F9108950F931F933B
:1005E000CF93DF938230910510F482E090E0E091A8
:1005F0008801F091890120E030E0A0E0B0E0309780
:1006000019F1408151810281138148175907C8F0BF
:100610008417950769F4109731F012960C9312978E
:1006200013961C9327C0009388011093890122C060
:100630002115310519F04217530718F49A01BD012D
:10064000EF01DF01F801DBCF21153105F9F0281B9F
:10065000390B2430310580F48A819B816115710545
:1006600021F0FB019383828304C0909389018093DE
:100670008801FE01329644C0FE01E20FF31F819310
:10068000919322503109398328833AC02091860101
:1006900030918701232B41F4209102013091030115
:1006A0003093870120938601209100013091010150
:1006B0002115310541F42DB73EB740910401509109
:1006C0000501241B350BE0918601F0918701E217AB
:1006D000F307A0F42E1B3F0B2817390778F0AC0165
:1006E0004E5F5F4F2417350748F04E0F5F1F509342
:1006F0008701409386018193919302C0E0E0F0E08E
:10070000CF01DF91CF911F910F910895CF93DF9388
:10071000009709F481C0FC01329713821282A091E4
:100720008801B0918901109781F420813181820F75
:10073000931F20918601309187012817390751F5C1
:10074000F0938701E093860167C0ED0120E030E07F
:10075000CE17DF0740F44A815B819E0141155105A8
:10076000F1F0EA01F5CFD383C28340815181840F38
:10077000951FC817D90759F488819981840F951F4F
:100780000296918380838A819B8193838283211542
:10079000310529F4F0938901E09388013DC0E90116
:1007A000FB83EA8349915991C40FD51FEC17FD07CC
:1007B00061F480819181840F951F0296E9019983EC
:1007C0008883828193819B838A83E0E0F0E01296A4
:1007D0008D919C911397009719F0FD01DC01F7CFE3
:1007E0008D919C9111979D012E5F3F4F820F931F1A
:1007F00020918601309187012817390769F43097D5
:1008000029F4109289011092880102C01382128289
:10081000B0938701A0938601DF91CF9108951F9334
:10082000FC0199278827BC01E89411911032E9F363
:10083000193010F01E30C8F31B3251F01D3249F44C
:10084000689406C00E944C04610F711D811D911DAA
:10085000119110531A30B0F33EF490958095709535
:1008600061957F4F8F4F9F4F1F910895DC0101C00D
:100870006D9341505040E0F70895BB272A3051F462
:10088000992342F4BDE290958095709561957F4FD4
:100890008F4F9F4F0C946204592F482F372F262FCC
:1008A000660F771F881F991F660F771F881F991F74
:1008B000620F731F841F951F660F771F881F991F74
:1008C0000895BB27FA01A62F6217710581059105CE
:1008D000330B30FB66F0AA27660F771F881F991F1E
:1008E000AA1FA21710F0A21B63953850A9F7A05DAC
:1008F000AA3308F0A95DA19336F7B111B193108224
:10090000CA010C948304DC01FC01672F71917723E9
:10091000E1F7329704C07C916D9370836291AE17BA
:0A092000BF07C8F30895F894FFCF55
:10092A0000008A012000444154413A2000456E7477
:10093A00657220796F75722049443A2000456E74B9
:10094A00657220796F75722050617373776F726464
:10095A003A2000507265737320456E746572207474
:10096A006F2074727920616761696E2E0041757417
:10097A0068656E7469636174696F6E204661696C3B
:10098A0065642E0D0041757468656E7469636174DF
:10099A00696F6E20436F6D706C6574652E0D00442F
:0609AA006174613A2000B7
:00000001FF
